:100000000C944B030C9468030C9468030C946803E1
:100010000C9468030C9468030C9468030C946803B4
:100020000C9468030C9468030C94351E0C94F01C1B
:100030000C945B200C9468030C9468030C94680384
:100040000C9468030C9468030C9468030C94680384
:100050000C9468030C940E200C9468030C946803B1
:100060000C9468030C9468030C9468030C94680364
:100070000C9468030C9468030C9468030C94680354
:100080000C9468030C9468030C9468030C94680344
:100090000C9468030C9468030C9468030C94680334
:1000A0000C9468030C9468030C946803D10C450D00
:1000B000D90CA30CA70CDD0CAA0CE00CEB0CB50CB6
:1000C0003B0DB90CEF0CBD0CF30C1D0DC10CF70C66
:1000D000270DC70CFD0C070DAE0CE40CB10CE70CA2
:1000E000CC0C020D130D330D350D9F0CD50C4E0DA0
:1000F000090C9D0DA20DA70DAC0DB10DB60DBB0DDC
:10010000C00DC50DCA0D170C190CD10DD30D780DEE
:10011000780D780D780D780D780D450E450E740E1E
:10012000740EF00E0610061006100E0F820F930FBD
:10013000930FF119F619001AF419F919FE19FC199F
:100140007E2AA52A5A2CA52A5A2CF12A142B5A2C7D
:10015000152C252C0020103000504060003121412A
:10016000006151710012022200423252007262821A
:1001700000130323005343630014042400645474E5
:1001800000150525004535550075658500160626C0
:1001900000463656001707270047375700281838FB
:1001A000005848680039294900695979001A0A2A13
:1001B000004A3A5A0120103001504060013121417B
:1001C00001615171011202220142325201726282B6
:1001D0000113032301534363011404240164547481
:1001E000011505250145355501756585011606265C
:1001F0000146365601170727014737570128183897
:10020000015848680139294901695979011A0A2AAE
:10021000014A3A5A29002B003900E100E3000000AE
:100220001E00140004001D210100E2001F001A003E
:1002300016001B000100280020000800070006002F
:1002400001002C00210015000900190000574A0088
:10025000220017000A000500000050000100010004
:100260000000010000005200010001000000010038
:100270000000510023001C000B00110000004F0083
:10028000240018000D00100003574C0025000C003E
:100290000E00360004572A00260012000F00370017
:1002A00005572B0027001300015702570657E60099
:1002B0002E022D002E00E500E700000029000100BD
:1002C00001000100010000003A001E02200222028B
:1002D0002E00057E3B001F02210223020100047E46
:1002E0003C002F0226022F00010028783D0030023A
:1002F000270230000100037E3E0031023500350246
:1003000000002178010001000000010000002778B2
:100310000100010000000100000020783F005200B1
:10032000510024020000027E4000240021001E0033
:100330000100017E4100250022001F0037002378C4
:1003400042002600230020002700247843002502D5
:100350002E0231002E000100440045000100010082
:100360000100000005010980A101850319012AB7D8
:1003700000150126B700950175108100C0050C0914
:1003800001A101850419012AA002150126A00295E8
:100390000175108100C005010906A1018506050748
:1003A00019E029E715002501950875018102050767
:1003B000190029EF1500250195F075018102050846
:1003C00019012905950575019102950175039101A2
:1003D000C00660FF0961A1010962150026FF0095B2
:1003E00020750881020963150026FF009520750815
:1003F0009102C005010906A101050719E029E715C9
:100400000025019508750181029501750881010596
:1004100007190029FF150026FF00950675088100C1
:100420000508190129051500250195057501910299
:10043000950175039101C009025B00030100A0FA58
:10044000090400000103010100092111010001223A
:1004500044000705810308000109040100020300AC
:10046000000009211101000122220007058203205A
:100470000001070503032000010904020001030035
:100480000000092111010001226D000705840320ED
:1004900000011201000200000008973276490001B5
:1004A000010203011A034F0057006A0051004A007D
:1004B0002F006F0072006A0044004B0051000000E2
:1004C00016034500720067006F0064006F0078003B
:1004D000200045005A00000028035A005300410044
:1004E000200054006500630068006E006F006C001F
:1004F0006F006700790020004C006100620073000B
:1005000000000403090400010101010101010101CE
:1005100002020202020202020203030303030303B4
:100520000304040404040404050505050506060681
:100530000606070707070708080808090909090A3E
:100540000A0A0B0B0B0C0C0C0D0D0D0E0E0E0F0FE3
:100550000F10101111111212131314141515161671
:100560001717181819191A1A1B1B1C1D1D1E1E1FE0
:100570002020212222232424252626272829292A2F
:100580002B2C2D2D2E2F3031323233343536373857
:10059000393A3B3C3D3E3F40414243444546474853
:1005A000494A4C4D4E4F50515354555658595A5B29
:1005B0005D5E5F616264656668696B6C6D6F7072C9
:1005C000737577787A7B7D7E8082838587888A8C35
:1005D0008E8F91939596989A9C9EA0A2A3A5A7A969
:1005E000ABADAFB1B3B5B7BABCBEC0C2C4C6C9CB60
:1005F000CDCFD1D4D6D8DBDDDFE2E4E7E9EBEEF016
:10060000F3F5F8FAFDFF0000FF0000FF0000FF0017
:1006100000FF0000FF0000FF0000FF0000FF0000DF
:10062000FF0000FF0000FF0000FF0000FF0000FFD0
:100630000000FF0000FF0000FF0000FF0000FF00BF
:1006400000FF0000FF0000FF0000FF0000FF0000AF
:10065000FF0000FF0000FF0000FF0000FF0000FFA0
:100660000000FF0000FF0000FF0000FF0000FF008F
:1006700000FF0000FF0000FF0000FF0000FF00007F
:10068000FF0000FF0000FF0000FF0000FF0000FF70
:100690000000FF0000FF11241FBECFEFDAE0DEBF35
:1006A000CDBF12E0A0E0B1E0EAE6F3E702C00590BA
:1006B0000D92A23FB107D9F727E0A2EFB2E001C047
:1006C0001D92AA31B207E1F70E948B100C94B33946
:1006D0000C940000A3E0B0E0E0E7F3E00C94903667
:1006E000782E8091880187110DC02091BE0623705D
:1006F00030E04091870150E081E02417350719F47C
:1007000080E001C081E08170809383018091C30605
:1007100090918201981739F08093820140E060E067
:1007200080E00E943F2FF7E17F129DC08091810100
:100730000E949631192F90918301911121C06091EF
:10074000C20620E1620F08F46FEF8091900690914D
:1007500091060E94F92F6AE070E00E947C36892B96
:1007600039F50E948A2FE0E38E9F90011124609159
:100770008201832F932F990F990B0E94583118C033
:10078000282F30E03B832A83E12EF12C8A819B8144
:100790008E159F056CF4609182018A819B810E9475
:1007A00058314A815B814F5F5F4F5B834A83EECF55
:1007B00091E0998331C0871508F49FC398E17912BD
:1007C00050C3809181010E949631192F909183012D
:1007D00091112EC36091C20620E1620F08F46FEF01
:1007E00080919006909191060E94F92F65E070E04B
:1007F0000E947C36892B71F40E948A2FA0E38A9F85
:100800009001112460918201832F932F990F990BEE
:100810000E94343151E05983103380F00EC04715E7
:1008200008F41EC17110DFC080918301882329F074
:1008300040E060E080E00E943F2F198280918101BA
:100840008F5F80938101E981E111D5C682E08093B9
:100850008401809183018111CEC67110CCC683E0E2
:1008600080938401C8C6F71508F4CFC12BE072123B
:100870000CC08DEC9EE205C02AE07212EBC089EE3E
:100880009EE20E94E2288983D9CF271508F473C11C
:1008900035E0731248C0809181010E9496319A839D
:1008A00089830091BF061091C006F090C106609147
:1008B000C206669566956695809190069091910620
:1008C0000E94F92F0E94452F805887FD8195880F3F
:1008D000382F4F2D349F312D1124832FB8010E94C2
:1008E0001630162F072FF82E9A81A981A917A8F480
:1008F0005981E52FF0E0DF01A754BD4F8C91909115
:100900008201982331F02F2D412F602FCF010E94BB
:10091000422F89818F5F8983E7CFB1E0B98390331C
:1009200008F48CCF8ACF371508F407C142E074125F
:1009300076CF809181010E9496319A8389830091BC
:10094000C0061091C106F090BF066F2D702F812F49
:100950000E941630E62ED72EC82E6091C2066F0D6B
:10096000702F812F0E941630162F072FF82EEA8144
:10097000F981FE1790F5A9818A2F90E0FC01E754D8
:10098000FD4F308120918201232359F030FF04C0B4
:100990002F2D412F602F03C02C2D4E2D6D2D0E9429
:1009A000422FB981BF5FB983E2CF94E0791252C080
:1009B000809181010E9496319A8389830091C006BB
:1009C000D090C1062091C20610E4129F112D11246F
:1009D000EA81F981FE1708F486C021E02983E0331B
:1009E00008F42CCF2ACF51E0751234C080918101D8
:1009F0000E9496319A8389836091BF067091C006E8
:100A00008091C1060E941630162F072FF82E4A81BA
:100A100059815417A8F42981E22FF0E0DF01A7548F
:100A2000BD4F8C9190918201982331F02F2D412F51
:100A3000602FCF010E94422F39813F5F3983E7CF7A
:100A400081E08983403308F4F9CEF7CEECE17E16DD
:100A500009F459C2809181018F5F80938101F6CEA4
:100A600083E07812A2CF809181010E9496319A830F
:100A700089830091C006D090C1062091C20610E47F
:100A8000129F112D11245A818981851730F53981E2
:100A9000E32EF12CF701E754FD4F90818091820104
:100AA0008923B9F0F701EE0FFF1FE65AFD4F808151
:100AB00082958F706091BF06819F600D1124702F09
:100AC0008D2D0E941630462F282F672FC7010E94B8
:100AD000422F49814F5F4983D6CF91E099835033AC
:100AE00008F4ACCEAACEA981EA2EF12CF701E75486
:100AF000FD4F9081809182018923D9F0F701EE0F9B
:100B0000FF1FE75AFD4F6081169FB0011124B5E029
:100B100075956795BA95E1F78091BF06680F702FBC
:100B20008D2D0E941630462F282F672FC7010E9457
:100B3000422FB981BF5FB9834BCFA8E07A1203C0BF
:100B400082E29FE207C0A71540F4F9E07F1294CE3D
:100B500084E09FE20E94492996CEB6E07B1203C052
:100B60008AE49EE205C0E7E07E1274CF8EE19EE249
:100B70000E944E2888CE31E1731203C080ED9FE2BF
:100B8000E9CF371500F14EE0741203C08AE09EE20F
:100B9000EFCF471560F05CE0751203C08CE19EE278
:100BA000E7CF8DE0781256CF83E19EE2E1CF9FE060
:100BB000791203C08FEE9DE2DBCFA0E17A124ACF1B
:100BC00080EE9DE25ECEB4E17B1203C082EB9DE23B
:100BD00007C0B71540F425E1721211C080E89DE20C
:100BE0000E94922850CEE2E17E1203C08CEB9EE27E
:100BF000B1CFF3E17F122ECF88EA9EE242CE36E1FA
:100C0000731228CF82E49DE2EBCF43E274121BC043
:100C10008091940621E0382F321B08F430E0832FB6
:100C20006AE07DE20DC0B5E27B1214CF809194069C
:100C300021E0482F421B08F440E0842F62ED7CE263
:100C40000E944D2720CE471508F421C45DE175129E
:100C5000E6C04091B8035091B9036091BA03709116
:100C6000BB038091900690919106A0919206B0915D
:100C7000930684179507A607B70708F4DECD809181
:100C80008301811107C0809181010E949631092F53
:100C9000898357C040E060E080E00E943F2F00E081
:100CA00010E00E948A2FD801AA0FBB1FAA0FBB1FFA
:100CB000BB83AA8381FF08C0A850BD4FFD011082ED
:100CC0001182128213821DC00E948A2FF82E0E9468
:100CD0008A2FF0E88F9FC00111247FE7790F2A81C6
:100CE0003B8128503D4F3B832A836F2D8091C10665
:100CF0000E941630AA81BB816D937D938D939C9346
:100D000013970F5F1F4F0033110559F6BCCFB98100
:100D10008B2F90E0FC01E754FD4F30812091820140
:100D2000232361F0FC01EE0FFF1FEE0FFF1FE850C1
:100D3000FD4F2281408161810E94422FE981EF5F56
:100D4000E983F981F01718F321E02983003308F0D3
:100D50001982003308F472CD20E010E0015011092F
:100D6000822F90E080179107CCF4DC01AA0FBB1F03
:100D7000AA0FBB1FA850BD4F880F991F880F991F3E
:100D8000FC01E450FD4F40815181628173814D939C
:100D90005D936D937C9313972F5FE2CF0E948A2F10
:100DA000000F111F000F111F81FF08C0F801E8504C
:100DB000FD4F108211821282138218C00E948A2F66
:100DC0008A830E948A2F30E8839FC00111247FE725
:100DD000790F08501D4F6A818091C1060E9416301C
:100DE000D8016D937D938D939C9313970E9403304C
:100DF00000919006109191062091920630919306F1
:100E0000DC01CB01800F911FA21FB31F8093B80399
:100E10009093B903A093BA03B093BB030FCD5715BA
:100E200008F4E7C08AE17812C6CC86E69FE2A0CE3D
:100E3000E82FF0E0FB83EA83E12EF12C4A815B810D
:100E40004E155F050CF0E6CC609182018A819B8192
:100E50000E9434312A813B812F5F3F4F3B832A839D
:100E6000EDCFA9E17A12F6CD809181010E949631F1
:100E70009A8389830091C0061091C106F090BF0645
:100E80006091C206669566956695809190069091F0
:100E900091060E94F92F0E94452F805887FD819569
:100EA000880F682F2CE0629F612D11246F0D702F29
:100EB000812F0E941630162F072FF82EAA81B98194
:100EC000BA17A8F48981E82FF0E0DF01A754BD4FDD
:100ED0008C9190918201982331F02F2D412F602F1A
:100EE000CF010E94422F99819F5F9983E7CFE1E074
:100EF000E983A03308F4A2CCA0CCBBE17B12A6CD41
:100F000081E39DE235CE809181010E949631192FB7
:100F100040919006509191066091920670919306CF
:100F20008091F4029091F502A091F602B091F7023F
:100F300084179507A607B70708F058C00E948A2FA4
:100F4000F0E38F9FC0011124292F332727FD3A9505
:100F50003B832A83F901E754FD4F90818091820100
:100F6000892309F443C00E948A2F81FD0EC00E948C
:100F70008A2F082F0E948A2F30E8839FC0011124F6
:100F80007FE7790F8091C10603C080E070E000E048
:100F9000602F0E941630462F282F672F8A819B8151
:100FA0000E94422F2091C20630E1230F08F42FEF58
:100FB00060E1822F90E00E94F92FBC0184EF91E064
:100FC0000E947C368091900690919106A0919206A5
:100FD000B0919306860F971FA11DB11D8093F40257
:100FE0009093F502A093F602B093F70241E0498393
:100FF00013CCF0E27F12C6C06090C10683E0689E09
:10100000A001112456954795569547955B834A83D1
:101010009A819983862C912C8FEF90E0B4010E94E5
:101020008339362E80918301882371F040E060E09F
:1010300080E00E943F2F84E5EFEEF3E0DF011D9298
:101040008A95E9F71092EE038091ED038F5F80930C
:10105000ED033FEEE32E33E0F32E45E0A42E42E015
:10106000B42E55EF452E53E0552EEA81FB818E1AA2
:101070009F0A87016501212C21100CC08091EE038D
:10108000811108C00E941337853595401CF4D701A3
:101090006C920CC0F8018081882341F0861530F4F1
:1010A0009091ED03391202C081508083D601EC91FA
:1010B000EF3F29F1D8012C91F0E0B981B21790F4FB
:1010C00030E04A815B81241B350B249FC001259FA2
:1010D000900D349F900D1124B4010E947C36262F70
:1010E000462D0AC0629EC00111246A817B810E9444
:1010F0007C36462F20E060E0CF010E94422F2394EF
:1011000056E0C50ED11C0A5F1F4F8EE02812B4CFE7
:101110009FEFE91AF90AAFEFAA1ABA0A4E145F0450
:1011200009F0A7CF8091ED03381202C01092ED03B1
:101130008091EE038F5F8D3118F48093EE037DCBA9
:101140001092EE0327E334E08DE043E454E09FEF98
:10115000960DADE3B4E0F9018D3021F46C91661287
:1011600001C09C936081661510F090836682319671
:1011700011964A175B0781F781502650310981117A
:10118000E8CF5BCBF71508F474C12EE17212CAC028
:1011900080918301882329F040E060E080E00E9494
:1011A0003F2F809181010E949631392E4091900607
:1011B0005091910660919206709193068091E6039A
:1011C0009091E703A091E803B091E9038417950794
:1011D000A607B70708F09FC06091BF067091C006D0
:1011E0008091C1060E941630662E572E482E0CEBB9
:1011F00013E0E5E0F2E0FB83EA83B9E58B2EB2E091
:101200009B2EAA80BB8065017801212CD7018C918F
:10121000F601882371F08081242D462D652D90E004
:101220000E94422FD50115968C91242D462D652DB7
:101230000DC0808120E040E060E090E00E94422FFD
:10124000D50115968C9120E040E060E090E00E948E
:10125000422FF7018181D7018D937D012394BFEF48
:10126000CB1ADB0AE1E0AE1AB108F2E02F12CECFC2
:10127000D80112968C91EA81FB81882379F08281D2
:10128000242D462D652D90E00E94422FAA81BB811E
:1012900013968C91242D462D652D0EC0828120E061
:1012A00040E060E090E00E94422FAA81BB8113964B
:1012B0008C9120E040E060E090E00E94422F0E948C
:1012C0008A2F837091E009F090E0F80192830D5F1E
:1012D0001F4F2A813B812A5F3F4F3B832A8382161F
:1012E000930609F08ECF0E94033000919006109172
:1012F00091062091920630919306DC01CB01800F7C
:10130000911FA21FB31F8093E6039093E703A0935E
:10131000E803B093E90331E039834FE2431508F065
:101320008DCA8BCA3FE1731295CB809181010E94D7
:101330009631282E492E80918301882361F040E068
:1013400060E080E00E943F2F84E5EFEEF3E0DF01F4
:101350001D928A95E9F780918101811115C08091D4
:10136000EB039091EC030E94342021E08931910538
:1013700008F420E02093EA03499730F00E944F20C0
:101380009093EC038093EB0375E0C72E72E0D72EA9
:10139000EFEEEE2EE3E0FE2EFDE38F2EF4E09F2E27
:1013A000512CAAEA3A2E00E010E0F601E00FF11FFE
:1013B000B081B983B21508F442C0B41508F03FC03B
:1013C0005394EB2FF0E0FB83EA83E754FD4F9081C9
:1013D00080918201892309F432C05701A00EB11E09
:1013E000D5016C90362D25E5321B08F430E0709164
:1013F000C006232D462D240F08F42FEF4091C1067F
:1014000052E0259F200D11242E5F249F212D1124B1
:10141000632D631B822F0E941630462F282F672FC3
:101420008A819B810E94422F8091EA03882339F0B0
:10143000262D31E0231B08F420E0D5012C930F5F0B
:101440001F4F0630110509F0B0CF8E149F0451F0E4
:10145000B6E0CB0ED11CE6E0EE0EF11CF4E0F51583
:1014600008F0A1CF21E029833FE2341508F0E6C956
:10147000E4C941E2741203C08AE29DE205C052E26F
:101480007512E8CA83E29DE20E94E427FCC989E262
:1014900078120BC08091940621E0382F321B08F49B
:1014A00030E0832F68E87CE2CBCB871518F196E219
:1014B000791203C062ED7CE207C0971538F0A4E210
:1014C0007A12B1CB6AE07DE280E0BACBE7E27E122D
:1014D0000BC08091940621E0582F521B08F450E075
:1014E000852F60EA7CE2ACCBF8E27F12B3CA60EAF7
:1014F0007CE2EACF2CE2721203C062E77CE2E4CF26
:101500002715A0F03AE2731203C068E87CE2DCCF52
:101510004BE274129FCA8091940621E0482F421B2F
:1015200008F440E0842F62E77CE28ACB5DE275122A
:101530002EC0809181010E9496319A8389836091A7
:10154000C10670E080E090E00E94883820E030E042
:101550004FE753E40E94E7376B017C019A81A98130
:10156000A91708F0DAC920E030E0A901C701B601E7
:101570000E9416390E945938262F462F5981852FEF
:1015800090E00E94422F89818F5F8983E7CF8FEFA0
:10159000781260CA8091900690919106A09192066F
:1015A000B091930688279C70AA27BB272AE0B6959E
:1015B000A795979587952A95D1F782309105A10532
:1015C000B10571F083309105A105B10569F040E0E6
:1015D0000197A105B10511F060E008C064E102C007
:1015E00044E160E080E003C044E164E184E10E9402
:1015F0003F2F82E035C92396E2E10C94AC36A0E09F
:10160000B0E0E5E0FBE00C949936FC012481222354
:1016100009F47CC58C0161E00E94F318EC01F8012B
:101620008581882399F18091F9059091FA050097B9
:1016300009F456C5C817D90709F452C5992764E0BB
:10164000880F991F6A95E1F7FC01EB5EFE4F208140
:1016500024602083805F9E4FFC01D183C0830E9461
:101660005F211092F70561E0C8010E94F318EC01B8
:101670008115FEE79F0771F081302EE7920709F48C
:1016800049C08032984709F088C068C0C115FEE79C
:10169000DF07E1F5F8018581882309F431C59091D0
:1016A000F40681E0890F8770987F853020F4892BBC
:1016B0008093F40602C09093F4068091F40687703C
:1016C000FFEF8F9FC001112495958795959587957C
:1016D0009927909389008093880090938B00809342
:1016E0008A0090938D0080938C004091F406509175
:1016F000F5066091F6067091F7068FE090E00E9483
:1017000072378091F3060E94D519FAC4C1302EE7D2
:10171000D207F1F5F8018581882309F4F4C480919A
:10172000F40683FB222720F991E0922790FB83F9AE
:101730008093F406992329F040E060E080E00E9465
:101740003F2F4091F4065091F5066091F606709196
:10175000F7068FE090E00E947237D5C4F8018581CA
:10176000882309F4C5C19091C3068091BD069F3FAF
:1017700059F41092C30681608093BD0640E060E09A
:1017800080E00E943F2FB4C19FEF9093C3064BC0EF
:10179000C03248E7D40709F4ABC1F8018581C330F2
:1017A000FEE7DF0799F028F4C2304EE7D40751F086
:1017B00044C0C4305EE7D507A1F0C5309EE7D90725
:1017C000E9F03BC0882309F493C131C0882309F4B0
:1017D0008FC181E00E94933140E86FEF86E590E091
:1017E0000AC0882309F484C181E00E9493314FEF3D
:1017F0006FEF8CEA90E00E943D277AC1882309F4BC
:1018000077C181E00E9493314FEF6FEF8BE190E061
:10181000F2CF9091BE0681E089278093BE06109298
:1018200084018091BD0681608093BD0661C181E025
:1018300001C085E00E9493315BC19E0137552F3F67
:10184000310511F008F05BC06E01DD24960144E023
:10185000220F331F4A95E1F7F901E05FFE4F7F0148
:10186000A9014B5E5E4F6A01FA01908180FB90F9FD
:101870009083F8018581882341F10E944F20909345
:10188000720480937104F70182818F5F828390914B
:10189000F7058091F805892B838380914B0684831B
:1018A0004681578166857785C7010E944021F601F0
:1018B000808181FF03C090E080E002C09C2F8D2FCB
:1018C0009093F9058093FA051AC0F7014485558570
:1018D00066857785C7010E944021F601808181FFDE
:1018E0000EC0C7010E9446218091F9059091FA052A
:1018F000C817D90721F41092FA051092F905F801DA
:101900008581882309F406C1CE019057839708F09A
:10191000DBC084E090E00E944A37909302068093F7
:101920000106FE01E150F047E232F10520F4EA5AE7
:10193000FF4F0C949739809101068160ACC0809173
:1019400002068860B4C0809101068260A4C08091C4
:10195000010620C08091010688609DC0809102062A
:101960001EC0809102068260A2C080910106806143
:1019700092C08091010680628EC0809101068064D1
:101980008AC00E94EC3380910106806884C08091F7
:101990000106886084607FC0809102068260816059
:1019A00086C0809101068E7F76C080910206877F77
:1019B0007EC0809101068D7F6EC08091010620C09F
:1019C00080910106877F67C0809102061EC08091CA
:1019D00002068D7F6CC0809101068F7E5CC0809175
:1019E00001068F7D58C0809101068F7B54C00E94F4
:1019F000EC33809101068F774EC080910106877F7E
:101A00008B7F49C0809102068D7F8E7F50C0809170
:101A1000010682FB222720F991E0922790FB82F9B0
:101A200090FB83F938C080910206982F90959170B1
:101A30008E7F892B90FB81F93AC08091010686FB4D
:101A4000222720F991E0922790FB86F924C00E947A
:101A5000EC338091010687FB222720F991E0922741
:101A600090FB87F918C061E001C060E08EE090E073
:101A70000E9460371EC08091010684FB222720F956
:101A800091E0922790FB84F906C080910106982F7F
:101A9000909590FB80F9809301060BC0809102061F
:101AA00083FB222720F991E0922790FB83F9809312
:101AB0000206609101067091020684E090E00E94A7
:101AC0007E370E94EC3314C0C6318CE7D80709F08A
:101AD0006CC08091F8058A7A91E009F490E09093C7
:101AE00043048111FBC289E20E94B2200E940B24B0
:101AF00080914A06877009F409C3F801858188231B
:101B000009F404C38091020682FF00C382E00E94B0
:101B10005D24FCC2C6315CE7D50709F499C2809107
:101B2000F8058272FE01E052F847E531F10508F050
:101B300056C0E858FF4F0C94973945E051E36FE0E9
:101B400071E32CC04FE051E365E071E327C041EF42
:101B500050E36BEF70E322C04BEF50E361EF70E3B3
:101B60001DC047ED50E364EE70E318C044EE50E34F
:101B700067ED70E313C04DEB50E36AEC70E30EC009
:101B80004AEC50E36DEB70E309C041EA50E36FEAC1
:101B900070E304C04FEA50E361EA70E30E948921D8
:101BA000A7CF8DE047CE82E145CEC330FCE7DF070B
:101BB00009F47EC208F456C2CB358CE7D80709F485
:101BC0008BC2CC359CE7D90709F05EC28091020632
:101BD00082FB882780F991E089270E947424F8010C
:101BE0008581C081D181882349F0CE010E940333D1
:101BF000F82E682FCE010E94733304C0CE010E94DC
:101C00003F33F82EBE018F2D0E94C3220E94E02296
:101C1000D82FC92FC82EF801F580E680E2949FE006
:101C2000E92280914A06877001F1FF20F1F08C2FA4
:101C3000807F803469F080E28D0F8830B0F08C2F87
:101C4000807E803229F4F1E0FD1778F4EE2069F00F
:101C50008091020682FF09C082E00E945D2480918B
:101C60004A068770DD24D3948111D12CBC2EB29406
:101C70008FE0B8228B2D90E08C30910508F0C6C122
:101C8000FC01E357FF4F0C9497398C2F807FCF7066
:101C9000882311F0C295C07FFF20B9F0CC2309F44E
:101CA000A3C180E28D0F883010F0C11006C0909162
:101CB000F805C92BC093F80505C09091F705C92B0D
:101CC000C093F7050E940B248FC18D2F0E943034E2
:101CD000CC2309F49BC1D05E8C2FD83068F1CC2086
:101CE00059F10E94FD232AC08C2F807FCF70803253
:101CF00011F0C295C07FCC2029F021E0C21609F472
:101D00004CC055C08091020682FD1BC0FF2069F0C7
:101D1000CC2339F09091F805C92BC093F8050E94A7
:101D20000B2480E00E945A3471C180E00E9430345C
:101D3000CC2309F46BC18C2F0E9404240E940B2435
:101D400065C1FF2081F0EE20B1F141E0E4125EC1F7
:101D500090914B068C2F8923C81709F457C1C92BC2
:101D6000C0934B0653C1E11051C18C2F0E941F3408
:101D700080914B069C2F982329F09C2F90958923C6
:101D800080934B06209144048C2F822309F43EC19A
:101D9000C0952C232093440439C1FF2029F051E041
:101DA0005E1508F433C107C0E11030C115C0FF2033
:101DB00031F0E11019C18C2F0E94263427C1EE208A
:101DC00059F0D93309F01FC18FEF97EEE3E081504E
:101DD0009040E040E1F715C18C2F0E941F3416C1DE
:101DE0008C2F86958695837019F0813061F00EC135
:101DF000FF2021F08D2F9C2F937002C080E090E097
:101E00000E940E2109C1FF2021F08D2F9C2F93707D
:101E100002C080E090E00E94E920FEC08C2F837019
:101E2000A9F5F110F7C04D2F429546954770440F24
:101E3000440F8D2F8F7090E09C01042E01C0220F63
:101E40000A94EAF7D4FF08C08FE090E001C0880F41
:101E50004A95EAF7809501C080E0C695C695C370A3
:101E6000C23069F088F490915304C13019F0822B8C
:101E7000892302C0922B892B0E94C633CBC0822BB0
:101E8000909153048927F8CF822BF6CFFF2019F0C9
:101E90008C2F817001C08695882309F4BBC04D2F1B
:101EA000429546954770440F440F8D2F8F7090E0F8
:101EB0009C01042E01C0220F0A94EAF7D4FF08C047
:101EC0008FE090E001C0880F4A95EAF7809501C045
:101ED00080E0C695C695C370C23059F078F49091F1
:101EE000F306C13019F0822B892309C0922B892B6C
:101EF00006C0822B9091F306892701C0822B0E9495
:101F0000A83388C0CF70FF2039F08C2F0E94BA33DD
:101F10008D2F0E9426347EC08D2F0E941F348C2F5F
:101F20000E94AD3377C08D2FF2EFCF1669F1FC150B
:101F300038F020EFC21659F041EFC41601F150C03D
:101F400053EFC51641F194EFC916A9F049C0FF201F
:101F500069F0E1105BC0CF7181E090E001C0880FB3
:101F6000CA95EAF79091F30689271FC0E1E0EE15C4
:101F700008F44CC0F0CF8091020682FD19C0FF200A
:101F800029F08C2F8F711FC0FF20D9F38C2F8F71F8
:101F90000E94AD333BC0FF2039F0CF7181E001C01A
:101FA000880FCA95EAF701C080E00E94A8332EC0CE
:101FB000FF2061F08C2F8F71F8E08F9F900111242A
:101FC000236020934A060E94BA3320C081E00E9419
:101FD0005D2421E02E15D0F482E00E945D2416C01D
:101FE000FF2021F0EE2069F28D2F9CCEEE2071F2C1
:101FF000893349F44FEF57EE83E041505040804021
:10200000E1F700C000008D2F0E94303488EF8B0D67
:10201000843010F40E943321DD20A9F080914A061B
:1020200080FD11C0F80115828695869586950E94DF
:10203000BA33C8010E94FF0A80914A0686958695A8
:1020400086950E94AD3360E0C8010E94F3185EC01F
:1020500080914304811104C089E20E94842046CD0E
:1020600085E3FBCFC1154CE7D407A1F0C130DC47B5
:1020700009F0B5CD0E94EC335FEF84E39CE0515052
:1020800080409040E1F723C0CA35DC4709F0A7CD76
:1020900081E0A3CD0E94EC33FFEF24E34CE0F1504C
:1020A00020404040E1F700C000000E94DC1F20CD2E
:1020B0006FEF7FEF80E090E00E947E370E94EC336C
:1020C000EFEFF4E32CE0E150F0402040E1F700C0F6
:1020D00000000E94D11F0CCD80E07FCD85E304CDB0
:1020E000C1159EE7D90709F4DACAC130EEE7DE0769
:1020F00009F410CBC032F8E7DF0709F04ECB33CB41
:10210000C0E0DEE7FCCBC1E0DEE7F9CBCDB7DEB760
:10211000E9E00C94B536A3E5B0E0E1E9F0E10C9418
:10212000903685B7806885BF85B7806885BF84B7DE
:10213000877F84BF0FB6F894A8958091600088616E
:1021400080936000109260000FBE90E080E80FB6B0
:10215000F89480936100909361000FBE80E991E252
:102160009093F3028093F2020E94341D0E94DA1DC4
:102170008091E20084608093E200789480918606EA
:102180008823A1F01091E9001F709091EC00892F35
:10219000817090FD80E8182B1092E9008091E80092
:1021A00083FD0E949B291F701093E90082E084BD8B
:1021B00093E095BD9AEF97BD80936E000E94121B2D
:1021C00090E090930F0180930E010E94871A0E9465
:1021D000ED1AE5E4F4E0A4E5B4E011921D9224E0E8
:1021E000E335F207D1F780E090E00E944A37853E60
:1021F0009E4F09F46EC065EE7EEF80E090E00E9495
:102200007E3760E082E090E00E94603781E080935A
:10221000530461E083E090E00E94603760E074E185
:1022200084E090E00E947E3760E086E090E00E94CB
:10223000603760E087E090E00E94603740E050E067
:10224000BA0188E090E00E94723760E083E290E09B
:102250000E94603760E08CE090E00E94603760E0B0
:102260008DE090E00E94603719821A821B821C82E6
:102270001D821E821F82188648E050E067E170E0F0
:10228000CE0101960E94503740E050E0BA018FE144
:1022900090E00E9472371092F4061092F5061092A8
:1022A000F6061092F70684E08093F4064091F40657
:1022B0005091F5066091F6067091F7068FE090E078
:1022C0000E94723740E050E0BA0183E190E00E9442
:1022D000723782E090E00E943C378093620484E091
:1022E00090E00E944A3790930206809301060E9474
:1022F00099264FEF53EF81E0415050408040E1F785
:1023000000C000000E9499268091540480FF08C0FC
:102310006FEF7FEF80E090E00E947E370E94DC1F2D
:1023200083E090E00E943C370E94C6338091F30620
:102330000E94D5190E940A1C10929406EDEAF6E05C
:102340008FEF9FEF81939193A6E0ED3BFA07D1F7D2
:102350001092C606EFEDF6E08FEF9FEF8193919319
:10236000B6E0EF3EFB07D1F781E08093BD0648E081
:1023700050E067E170E08EEB96E00E942C371092FF
:10238000BD068091BE068C7FF9F485E38093BE067E
:102390008091890190918A01A0918B018093BF0661
:1023A0009093C006A093C1068FE78093C2068FEF7B
:1023B0008093C30648E050E067E170E08EEB96E062
:1023C0000E9450371092BD0689EA8093800089E010
:1023D0008093810024982C983F98479A54985C9A4F
:1023E00055985D9A6E98769A569A8FE090E00E9482
:1023F00044376093F4067093F5068093F606909345
:10240000F70667701FEF169FB00111247595679549
:10241000759567957727709389006093880070930E
:102420008B0060938A0070938D0060938C005E989F
:102430000E94C8190E94C4190E94C0198FEF90E031
:10244000909389008093880090938B0080938A00FA
:1024500090938D0080938C000E94D219EFEFF0E7EB
:1024600022E0E150F0402040E1F700C000000E946F
:10247000CF193FEF40E752E0315040405040E1F784
:1024800000C000000E94CC198FEF90E7A2E08150BD
:102490009040A040E1F700C000000E94C819BFEFC3
:1024A000E0E7F2E0B150E040F040E1F700C00000AA
:1024B0000E94C4192FEF30E742E0215030404040E5
:1024C000E1F700C000000E94C0198091F4068770F7
:1024D000189FC00111249595879595958795992703
:1024E000909389008093880090938B0080938A005A
:1024F00090938D0080938C005E980E94C8190E9472
:10250000C4190E94C0198091BE06883B18F080E073
:102510000E9493318091BE06837011F41092840161
:102520008091BE068C7F81608093BE068091BD063F
:1025300081608093BD0684E091E09093FE058093D6
:10254000FD0580918606853009F074C030E4E32EE5
:1025500002E614E0DD24D39443E0C42E50E1F52ECE
:1025600080918606853009F05FC0809186068430B0
:1025700009F438C00E94A0318091F80681110DC085
:102580000E946A03109288018091BE068370809336
:1025900087010E945B1BC0928401D092F8061092C2
:1025A000030688E190E00FB6F894A8958093600048
:1025B0000FBEE092600083B7817F846083BF83B7E2
:1025C000816083BF7894889583B78E7F83BF0FB671
:1025D000F894A895809160008861809360001092C3
:1025E00060000FBE80918506882309F4B9CF0E9450
:1025F000121B90E090930F0180930E010E94871AA6
:102600000E94ED1AE4E5F4E011920E171F07E1F7BE
:102610000E949926E4E5F4E081918111CDC294E015
:10262000E236F907C9F79CCF0E94EC330E943321B0
:102630001092F8060E949926A3E6B4E02A96BFAF4E
:10264000AEAF2A9721E734E0A4E5B4E0E3E6F4E096
:1026500091918D9189272E173F0719F08823C1F397
:1026600005C0811103C00E9475269EC12FEE222E47
:1026700023E0322EE5E0F2E02C96FFAFEEAF2C9790
:1026800024E534E060963FAF2EAF6097D12C609682
:10269000AEADBFAD60977D906096BFAFAEAF6097B7
:1026A0002A96EEADFFAD2A97A080A7242E96AFAE56
:1026B0002E97AA2009F45BC151012C964EAC5FAC59
:1026C0002C97C12C662463942E968FAD2E9786216D
:1026D00009F43DC1862C87202296CFAE22972396FF
:1026E000DFAE23970E944F2025969FAF8EAF259790
:1026F00081E026968FAF269791E0811001C090E08F
:1027000027969FAF279722964FAD229723965FADCE
:10271000239724966FAD249725967FAD259726960F
:102720008FAD26970E941E19882051F0D2018C91FE
:102730008F3F31F02D968FAF2D979924939401C040
:10274000912C092D10E08091C606F801E80FF11DCB
:102750003997ACF188E090E07C01E01AF10AB80109
:102760006F5F7F4F6A53794FA70187EC96E00E9415
:10277000AA39B801675F7F4F6A53794FA7018FEC81
:1027800096E00E94AA39A701440F551FB801660FB1
:10279000771F675E7F4F6A53794F8FED96E00E94F7
:1027A000AA39B8016F5E7F4F6A53794FA70187ED51
:1027B00096E00E94AA3988E089198093C606809124
:1027C000C60690E02D96FFAD2D97AF2FB0E09D018E
:1027D000220F331F275A3D4FAA0FBB1FBD01665A58
:1027E0007D4F41E0480F9915C0F490E0FC01EA5399
:1027F000F94FD9015C915183DB015C9151872D9692
:10280000BFAD2D97B18B880F991FFC01EA53F94F8B
:10281000128E118E91E0842FE4CF8093C60688201B
:1028200009F495C08091BE068C7F8C3709F08FC06B
:10283000F20180818F3F09F48AC075E0872E72E033
:10284000972EEFEEEE2EE3E0FE2E28961FAE289791
:1028500090E09C01220F331FA901475A5D4F6296F9
:102860005FAF4EAF6297D901A65ABD4F6496BFAF16
:10287000AEAF649700E010E0F401E00FF11F80813B
:102880008F3F09F44EC02896BFAD2897DB120AC0CF
:10289000C01208C0F501208130E2230F08F42FEFA9
:1028A00020833FC090E06296EEADFFAD629740811D
:1028B00050E0FC01EE0FFF1FE75AFD4F2081421B45
:1028C00051096496AEADBFAD64972C9130E0880F8E
:1028D000991FFC01E65AFD4F8081281B3109449F56
:1028E000B001459F700D700D1124229FC001239FE0
:1028F000900D900D1124860F971F0E949F2F8932F3
:1029000080F428E2382F231B08F420E0F701E00FC1
:10291000F11F213108F020E13081320F08F43FEF40
:1029200030830F5F1F4F0630110509F0A5CF2896A1
:102930004FAD28974F5F28964FAF289756E0E50E8A
:10294000F11C86E0880E911C4E3009F093CFC394A1
:10295000660C9FEF491A590AAFEFAA1ABA0AB6E0F5
:10296000CB12B2CE2A96EEADFFAD2A977082D394E9
:102970002A962EAD3FAD2A972F5F3F4F2A963FAF45
:102980002EAF2A972C964EAD5FAD2C974A5F5F4FC6
:102990002C965FAF4EAF2C9756E0250E311C8EE083
:1029A000D81275CE0E9443208091F9059091FA05C6
:1029B000892BE9F080917104909172040E94342077
:1029C000893C9105A0F08091F9059091FA0599272D
:1029D00024E0880F991F2A95E1F7FC01EB5EFE4F7A
:1029E000208122FD04C0805F9E4F0E945F210E94D3
:1029F000A0310E94332190917304891721F08093B4
:102A000073040E94432080918606843009F099CD9A
:102A100083E08093E9008091E80082FF92CD80916D
:102A2000E80085FF22C00E94531D81111CC000E2F6
:102A300010E07E0191E2E90EF11C08C08091F100E6
:102A4000D7018D937D010150110969F08091E80053
:102A500085FDF4CF8091E8008B778093E8000E9499
:102A6000531D882399F391E001C090E08091E80024
:102A70008B778093E800992309F463CD89A1863090
:102A800009F479C0B0F4823009F45BCD60F4882396
:102A900029F1813009F08CC08093740484E089832B
:102AA0008EEF8A837CC0843031F1853009F463C0B5
:102AB0007FC0893009F45FC030F4873099F18830E5
:102AC00009F459C075C08A3009F457C08E3F09F027
:102AD0006FC0898394E09A838B8361C019828DE0F3
:102AE000ECE8F1E0DE01129601900D928A95E1F793
:102AF0008EEF8E8754C080917404882309F421CD11
:102B00008AA1811104C08BA10E94AD331ACD81E04E
:102B100090E00BA002C0880F991F0A94E2F70E9470
:102B2000A8330FCD81E0809376048AA18230C1F072
:102B300000F5882319F0813051F01BC08BA1882348
:102B400019F00E94D219FDCC0E94C819FACC8BA1B1
:102B5000882319F00E94CF19F4CC0E94C419F1CC3B
:102B60008BA1882319F00E94CC19EBCC0E94C019CC
:102B7000E8CC85E01EC084E01CC08AA111E0811170
:102B800001C010E010937604811106C00E94C8199C
:102B90000E94C4190E94C0198BE089831A8340E205
:102BA00050E0BE016F5F7F4F82E00E946A1FC9CC78
:102BB0008FEF0E94261AC5CCF9BC82E189BD09B409
:102BC00000FEFDCF8091D8008F7D8093D80080914A
:102BD000E00082608093E0008091E00081FDFCCF06
:102BE0000E94EC33BDCC982F92959F7019F0892FDD
:102BF00024E001C020E0982F9695969511F02E5F65
:102C0000892F982F969509F02F5F822F08959C01A8
:102C10003A9521153F4130F5BC0166277270AC0131
:102C2000442754709C012227387094FF0FC090FFF6
:102C300002C080E101C080E0672B09F08062452B73
:102C400009F08064232B79F080680895892F8170C2
:102C5000672B09F08260452B09F08460232B19F063
:102C60008860089580E00895FC018281813039F404
:102C7000958192FD12C090FF10C082E008958230CD
:102C800039F4858182FD06C080FD06C083E0089589
:102C900086E0089585E0089584E0089590E0FC01C1
:102CA000E355FE4F208121111AC0F894FC01E15632
:102CB000FE4F8081E82FE295EF70F0E031A1282FE0
:102CC0002F7081E090E001C0880F2A95EAF7982FD5
:102CD0009095932391A392A1892B82A37894089530
:102CE000CF93DF93EC010E943034CE01805E9109D6
:102CF000089710F0209731F4CE010E9407160E9429
:102D00001F3405C0CE010E9407160E940E34DF91C9
:102D1000CF9108958FE39CE90197F1F700C000007F
:102D200080918604833029F0853031F0813041F480
:102D300003C088E390E002C088E392E00E9470162E
:102D40001092860408958FE39CE90197F1F700C083
:102D5000000080918404833029F0853031F0813087
:102D600041F403C080E390E002C080E392E00E945F
:102D700070161092840408958FE39CE90197F1F78F
:102D800000C0000080918204833029F0853031F04A
:102D9000813041F403C08FE290E002C08FE292E004
:102DA0000E9470161092820408958FE39CE90197A7
:102DB000F1F700C0000080918004823049F018F4DF
:102DC000813049F00CC0833031F0853021F007C0EC
:102DD00081E392E002C081E390E00E9470161092BD
:102DE000800408958FE39CE90197F1F700C000008B
:102DF00080917E04833029F0853031F0813041F4B8
:102E000003C084E390E002C084E392E00E94701665
:102E100010927E0408958FE39CE90197F1F700C0BA
:102E2000000080917C04833029F0853031F08130BE
:102E300041F403C083E390E002C083E392E00E9488
:102E4000701610927C0408958FE39CE90197F1F7C6
:102E500000C0000080917A04823049F018F481307B
:102E600049F00CC0833031F0853021F007C085E394
:102E700092E002C085E390E00E94701610927A04FE
:102E80000895CF93DF93EC01805E9109089710F0CD
:102E9000209731F4CE010E9407160E94263405C007
:102EA000CE010E9407160E9415348C2F0E945A34BE
:102EB000DF91CF9108950F931F93CF93DF938C01F0
:102EC000C99719F0C0E0D0E002C0C0E5D0E0C80169
:102ED0000E944117209741F08FE99FE00197F1F799
:102EE00000C000002197F6CFC8010E947016DF9144
:102EF000CF911F910F910895CF93DF93EC018A81B9
:102F0000833061F488E392E00E945B1788E392E0EB
:102F10000E945B1788E392E00E945B178A818430ED
:102F200020F088E392E00E945B17DF91CF91089533
:102F3000CF93DF93EC018A81833061F480E392E0E8
:102F40000E945B1780E392E00E945B1780E392E0AF
:102F50000E945B178A81843020F080E392E00E9417
:102F60005B17DF91CF910895CF93DF93EC018A81B6
:102F7000833061F48FE292E00E945B178FE292E06F
:102F80000E945B178FE292E00E945B178A81843077
:102F900020F08FE292E00E945B17DF91CF910895BD
:102FA000CF93DF93EC018A81833061F481E390E079
:102FB0000E945B1781E390E00E945B1781E390E041
:102FC0000E945B178A81843020F081E390E00E94A8
:102FD0005B17DF91CF910895CF93DF93EC018A8146
:102FE000833061F484E392E00E945B1784E392E013
:102FF0000E945B1784E392E00E945B178A81843011
:1030000020F084E392E00E945B17DF91CF91089556
:10301000CF93DF93EC018A81833061F483E392E004
:103020000E945B1783E392E00E945B1783E392E0C8
:103030000E945B178A81843020F083E392E00E9433
:103040005B17DF91CF910895CF93DF93EC018A81D5
:10305000833061F485E390E00E945B1785E390E0A4
:103060000E945B1785E390E00E945B178A818430A1
:1030700020F085E390E00E945B17DF91CF910895E7
:103080000E94341680938604833029F0853031F015
:10309000813061F407C088E390E006C088E392E0E5
:1030A0000E945B1788E392E00E94411708950E94F6
:1030B000341680938404833029F0853031F08130D8
:1030C00061F407C080E390E006C080E392E00E94D4
:1030D0005B1780E392E00E94411708950E94341626
:1030E00080938204833029F0853031F0813061F49F
:1030F00007C08FE290E006C08FE292E00E945B176B
:103100008FE292E00E94411708950E943416809346
:103110008004823049F018F4813091F008958330B2
:1031200031F0853049F0089581E392E00BC081E3EE
:1031300090E00E94411704C081E390E00E945B1779
:1031400081E390E00E94411708950E943416809315
:103150007E04833029F0853031F0813061F407C07E
:1031600084E390E006C084E392E00E945B1784E36E
:1031700092E00E94411708950E94341680937C04C7
:10318000833029F0853031F0813061F407C083E36A
:1031900090E006C083E392E00E945B1783E392E035
:1031A0000E94411708950E94341680937A04823059
:1031B00049F018F4813091F00895833031F0853072
:1031C00049F0089585E392E00BC085E390E00E940A
:1031D000411704C085E390E00E945B1785E390E00F
:1031E0000E9441170895A6E0B0E0E9EFF8E10C94E1
:1031F0009F3626E0FC01DE01119601900D922A9582
:10320000E1F7FC01258189819A81222359F0662307
:1032100049F00E940333182F682F89819A810E94F8
:10322000733303C00E943F33182F69817A81812F45
:103230000E94C3222696E3E00C94BB36A4E3B0E0E0
:10324000E4E2F9E10C949F364FA758AB69AB7AAB37
:103250008BAB9CAB91111092F705CE01889627E0BD
:10326000DC011D922A95E9F726E0FE01BF96DC01FC
:1032700001900D922A95E1F72CA52223E1F061E05F
:103280000E94F318809174048823A9F08DA5811100
:1032900002C087E001C086E0898388A58A8389A56A
:1032A0008B838EEF8C8340E250E0BE016F5F7F4FD7
:1032B00082E00E946A1F87E0FE01B896DE019196C7
:1032C00001900D928A95E1F7CE0181960E94EE243D
:1032D00081112CC087E0FE01B196DE0111960190AC
:1032E0000D928A95E1F76DA1662301F120911006F8
:1032F00030E0C9010196877099274091490650E056
:103300008417950761F16D8397E0929FD001939F99
:10331000B00D1124AF5EB94FFE01319601900D92B0
:103320009A95E1F7809310060E948B2417E0809114
:103330004906909110068917F9F0189FC0011124D1
:103340008F5E994F0E94EE248823B1F08091490648
:1033500090E001968770992780934906E8CF0E94F4
:10336000EC331092100610924906E9E0F6E087E08F
:10337000DF011D928A95E9F7E496E3E00C94BB36F1
:1033800027982F982F98089526982E982E9808956C
:1033900025982D982D980895279A2F9A0895269A62
:1033A0002E9A0895259A2D9A0895A0E2B0E0EBEDAB
:1033B000F9E10C949E36082F0E94F315182F5E98A1
:1033C0000E94C8190E94C4190E94C019812F90E060
:1033D000FC013197E730F105A8F4E756FF4F0C9454
:1033E00097390E94D2190EC00E94D2190E94CF199B
:1033F00009C00E94D21904C00E94D2190E94CF199C
:103400000E94CC19809174048823D9F080917804AB
:103410001817B9F0109378048FE39CE90197F1F73E
:1034200000C0000085E08983809178048A838EEF54
:103430008B8340E250E0BE016F5F7F4F82E00E94CD
:103440006A1F802FA096E4E00C94BA36A0E2B0E0A8
:10345000ECE2FAE10C94A0369FEF99838A8340E274
:1034600050E0BE016F5F7F4F82E00E946A1FA0960E
:10347000E2E00C94BC36A1E0B0E0E1E4FAE10C94A7
:103480009E368730F8F420910E0130910F01232BE6
:10349000D1F521E030E0A90102C0440F551F8A9503
:1034A000E2F7CA01809589830AE010E0AE014F5F20
:1034B0005F4F62E180E40E94953590930F01809305
:1034C0000E0121C090E0FC01E355FE4F2081211147
:1034D0001AC0F894FC01E156FE4F8081E82FE29576
:1034E000EF70F0E031A1282F2F7081E090E001C053
:1034F000880F2A95EAF7932F982B91A392A1809594
:10350000892382A378942196E4E00C94BA360F9331
:103510001F93CF9304EB11E0C7E0F80181918F0175
:10352000811103C08C2F0E944E16CF5FCE30A9F7B9
:10353000CF911F910F910895A1E0B0E0E2EAFAE186
:103540000C949E36082F8730C8F480910E0190911C
:103550000F01892BE9F519820AE010E021E030E043
:10356000AE014F5F5F4F63E180E40E94E3359093CB
:103570000F0180930E01898180952BC00E943B1A18
:10358000A9E9B1E020E030E010E051E04D91E42FF6
:10359000E295EF70F0E080A190E04F7002C0959549
:1035A00087954A95E2F780FD07C0852F022E01C05E
:1035B000880F0A94EAF701C080E0182B2F5F3F4F75
:1035C0002630310519F7802F0E944E16812F01C039
:1035D00080E02196E4E00C94BA36CF93DF93A9E91A
:1035E000B1E04FE951E061E070E0F8948D91E82F8F
:1035F000E295EF70F0E021A18F70EB0102C0CC0FDB
:10360000DD1F8A95E2F7CE019C2F9095922391A31E
:1036100092A1892B82A378944A175B0731F7DF9137
:10362000CF910895A2E0B0E0E8E1FBE10C949E3672
:1036300080E290E090930F0180930E0180917704D7
:1036400081110EC00E94183581E0809377042FEF1E
:1036500083ED90E3215080409040E1F700C00000EE
:1036600019828FE38A830AE010E022E030E0AE01A5
:103670004F5F5F4F60E080E40E94953590930F01AB
:1036800080930E01892B69F422E030E0AE014F5F98
:103690005F4F6CE080E40E94953590930F0180931A
:1036A0000E0180910E012296E4E00C94BA36089542
:1036B00080917B060895A0E0B0E0E1E6FBE10C9488
:1036C00098368FE3C82E85E0D82E9BEBA92E91E08B
:1036D000B92EE12CF12CF60180818823C1F0C0E0E5
:1036E000D0E0A7014C0F5D1F41555B4F6C2F6C5D07
:1036F000F501808103E010E020E130E0880F0E94B6
:1037000095356096C039D10561F7F6011082F4EA6B
:10371000CF0ED11C84EAE80EF11CEFEFAE1ABE0A00
:10372000F8E4EF16F1E0FF06B1F6CDB7DEB7EAE058
:103730000C94B436A4E0B0E0E0EAFBE10C949D36D2
:103740008033910508F049C0122F042FF62EBC01DA
:10375000660F771F660F771F6C5A7E4F44E050E06C
:10376000CE0101960E942337898183702A8130E03F
:10377000682F70E044EA849FC001112481559B4F5B
:10378000FC01E20FF31FE0815B814C81EF110CC063
:10379000FC01E50FF11DE081E01306C0FC01E40F20
:1037A000F11D80818117C9F0E4EAE69FC001E79F1F
:1037B000900D112481559B4FFC01E20FF31FF08205
:1037C000FC01E50FF11D0083FC01E40FF11D1083E6
:1037D000FC01E057FF4F21E020832496E5E00C94A4
:1037E000B936FF920F931F93CF93DF93182F062FB5
:1037F000F42EC0E0D0E02F2D402F612FCE010E948B
:103800009A1B2196C033D105B1F7CDB7DEB7E5E0FD
:103810000C94B936A4E0B0E0E0E1FCE10C949836F9
:103820000E94183510E04BE06DEF812F0E941A3195
:1038300040E06AE0812F0E941A318FE39CE90197F2
:10384000F1F700C0000040E060E0812F0E941A31D3
:1038500040E061E0812F0E941A3140E066E0812F54
:103860000E941A3140E06DEF812F0E941A3100E072
:1038700040E0602F812F0E941A310F5F0231C1F7A3
:1038800040E0602F812F0E941A310F5F0432C1F790
:1038900040E0602F812F0E941A310F5F043BC1F777
:1038A0004BE06DEF812F0E941A3141E06AE0812FD9
:1038B0000E941A3140E06DEF812F0E941A311F5F84
:1038C000123009F0B0CF04E511E094E1C92E92E086
:1038D000D92E24EAA22EEE24E394F12CBB24B39437
:1038E00044E050E0B801CE0101960E9423374A819E
:1038F0003B812C8189818370542F5695569556951E
:10390000A89EC001112481559B4FFC01E50FF11DBC
:10391000EF56FF4F4770B70102C0660F771F4A95F9
:10392000E2F7AB015081452B4083432F46954695E6
:103930004695FC01E40FF11DEF56FF4F3770A701CC
:1039400001C0440F3A95EAF73081432B4083322F70
:10395000369536953695FC01E30FF11DEF56FF4F76
:103960002770A70102C0440F551F2A95E2F79A015C
:103970003081232B2083FC01ED55FF4FB0820C5F7B
:103980001F4FC016D10609F0ABCF8FEAC82E84E0D6
:10399000D82EF12C560153EAA50EB11CF5018081F9
:1039A000882399F000E010E0F801EF56FF4FEC0D8E
:1039B000FD1D4081602F8F2D0E941A310F5F1F4F18
:1039C0000231110589F7F5011082F394F4EACF0E64
:1039D000D11C42E0F412DECF2496EAE00C94B43617
:1039E0001F920F920FB60F9211242F933F934F9374
:1039F0005F936F937F938F939F93AF93BF93CF9377
:103A0000DF93EF93FF93C091E900CF708091EC00BA
:103A1000D82FD17080FDD0E81092E9008091F0009D
:103A2000877F8093F00078940E949B291092E90090
:103A30008091F00088608093F000CD2BCF70C09310
:103A4000E900FF91EF91DF91CF91BF91AF919F91ED
:103A50008F917F916F915F914F913F912F910F9037
:103A60000FBE0F901F901895E8EDF0E080818E7FDB
:103A700080831092E2001092DA001092E100A0EE32
:103A8000B0E08C9181608C9380818F77808319BCAA
:103A9000A7EDB0E08C918E7F8C9380818F7E8083A8
:103AA0001092080608952091E4003091E50095E613
:103AB0004091EC00842F817040FF23C08091E8008A
:103AC00080FD1DC080918606882399F0853099F08D
:103AD0008091EB0085FD11C04091E4005091E5001C
:103AE0002417350729F3915011F09A01E1CF84E0B2
:103AF000089582E0089583E0089581E0089580E0CC
:103B000008954091E80042FFDDCF08958091880636
:103B100087FF11C08091E80082FD05C08091860674
:103B20008111F8CF11C08091E8008B770BC0809194
:103B30008606882349F08091E80080FFF8CF8091C5
:103B4000E8008E778093E8000895982F973068F505
:103B50009093E900981739F07091EC002091ED00F6
:103B60005091F00003C0242F762F50E021FD02C0B9
:103B70009F5FECCF3091EB003E7F3093EB003091B4
:103B8000ED003D7F3093ED003091EB0031603093DC
:103B9000EB007093EC002093ED005093F000209127
:103BA000EE0027FDE5CF80E008958F708093E90057
:103BB00081E00895A0E0B0E0E0EEFDE10C949A36DB
:103BC000C8EDD0E088818F7E8883E7EDF0E08081CA
:103BD0008160808384E082BF81E0809308068881D1
:103BE0008E7F888302EE10E0F80110821092DA00D6
:103BF00081EEC82ED12CF601108288818F778883C0
:103C000088818068888388818F7D888319BC109221
:103C1000860610928706109285061092840690EE12
:103C2000E92EF12CF70180818B7F80838881816070
:103C3000888342E060E080E00E94A51DF60180815B
:103C40008E7F8083F801808181608083808188609D
:103C50008083F70180818E7F808388818061888363
:103C6000CDB7DEB7E8E00C94B6361F920F920FB6D0
:103C70000F9211242F933F934F935F936F937F93F2
:103C80008F939F93AF93BF93EF93FF938091E10046
:103C900082FF09C08091E20082FF05C08091E100AF
:103CA0008B7F8093E1008091DA0080FF2AC08091B1
:103CB000D80080FF26C08091DA008E7F8093DA00E2
:103CC0008091D90080FF18C080E189BD82E189BD63
:103CD00009B400FEFDCF81E080938606809108063E
:103CE00081110FC00E94341D0E94DA1D8091E200F4
:103CF00084608093E20005C019BC10928606109281
:103D000008068091E10080FF17C08091E20080FFEB
:103D100013C08091E2008E7F8093E2008091E200E8
:103D200080618093E2008091D80080628093D80007
:103D300019BC85E0809386068091E10084FF30C045
:103D40008091E20084FF2CC080E189BD82E189BDC1
:103D500009B400FEFDCF8091D8008F7D8093D800FC
:103D60008091E1008F7E8093E1008091E2008F7E60
:103D70008093E2008091E20081608093E200809174
:103D80008706882311F084E007C08091E30087FD57
:103D900002C081E001C083E08093860680918606A0
:103DA0008091E10083FF27C08091E20083FF23C060
:103DB0008091E100877F8093E10082E08093860616
:103DC000109287068091E1008E7F8093E1008091C0
:103DD000E2008E7F8093E2008091E2008061809318
:103DE000E20042E060E080E00E94A51D8091F000CA
:103DF00088608093F000FF91EF91BF91AF919F9108
:103E00008F917F916F915F914F913F912F910F9083
:103E10000FBE0F901F90189520918E0630918F063F
:103E20002617370748F06115710539F42091E8002D
:103E30002E772093E80001C0B901FC0120E0611554
:103E4000710579F1809186068823F1F18530F1F1D1
:103E50008091E80083FD3CC08091E80082FD2EC087
:103E60008091E80080FFEBCF2091F3008091F20079
:103E700090E0922B6115710551F08830910538F46E
:103E800021912093F100615071090196F3CF21E057
:103E9000089709F020E08091E8008E778093E80091
:103EA000CECF2111CFCF0AC080918606882361F042
:103EB000853061F08091E80083FD0AC08091E800C0
:103EC00082FFF2CF80E0089582E0089583E00895B4
:103ED00081E008950F931F93CF93DF938B01EA0145
:103EE000909186069430A9F58F708093E9008FEF4A
:103EF0009091E800815095FD06C095ED9A95F1F7F7
:103F000000008111F5CF8091E80085FF22C00E945A
:103F1000531D811115C0209789F08091E80085FD1F
:103F200006C08091E8008E778093E800F0CFF8011A
:103F300081918F018093F1002197EDCF90E001C036
:103F4000982F8091E8008E778093E80081E09111AE
:103F500001C080E0DF91CF911F910F91089543E060
:103F600050E0BC0184E00E946A1F089540E250E0E6
:103F7000BC0184E00E946A1F0895CF93DF93EC0197
:103F800048E050E0BC0181E00E946A1F88E0FE0129
:103F9000ACE7B6E001900D928A95E1F7DF91CF9101
:103FA00008959AE088E10FB6F894A8958093600090
:103FB0000FBE90936000FFCFF89481E08093E00003
:103FC00080E28093D800E9ECF0E010828FE19EE47B
:103FD0000197F1F700C000001DBA109268001CBCE8
:103FE00010BE1FBA10927A0010926E0010926F00ED
:103FF00010927100109272001082ECEBF0E01082CF
:1040000014B817B81AB81DB810BA108215B818B875
:104010001BB81EB811BA0C94003F089578941F92F3
:104020000F920FB60F9211248F939F93AF93BF936C
:104030008091040690910506A0910606B0910706AE
:104040000196A11DB11D8093040690930506A093CF
:104050000606B0930706BF91AF919F918F910F9085
:104060000FBE0F901F9018959C014FB7F894809148
:10407000040690910506A0910606B09107064FBF71
:10408000821B930B08952FB7F894609104067091EA
:10409000050680910606909107062FBF08952FB759
:1040A000F8948091040690910506A0910606B091BF
:1040B00007062FBF08951F920F920FB60F9211247B
:1040C0008F939F93AF93BF9380910306811113C089
:1040D0008091040690910506A0910606B09107060E
:1040E0004196A11DB11D8093040690930506A093EF
:1040F0000606B0930706BF91AF919F918F910F90E5
:104100000FBE0F901F90189590918001992321F078
:104110009091010697FD03C0E7E8F4E01DC0E82F89
:10412000E695E695E695EE31E0F4F0E0E157FB4FD9
:10413000877021E030E0A90102C0440F551F8A9525
:10414000E2F7CA018095928189238283089531968E
:1041500054E0ED38F50729F092818913F8CF1282E7
:10416000F6CF0895909180019923D1F090910106A6
:1041700097FF16C0E82FE695E695E695EE3140F5F7
:10418000F0E0E157FB4F877021E030E0A90102C069
:10419000440F551F8A95E2F7CA019281892B16C0F8
:1041A000A9E8B4E0EFEF90E02D91821789F0EF3F9E
:1041B00019F4211101C0E92F9F5F9630A9F7EF3F55
:1041C00039F00E2E000CFF0BE957FB4F8283089548
:1041D0000895A3E0B0E0EFEEF0E20C94A036209159
:1041E000FF053091000628173907A1F090930006CB
:1041F0008093FF05E091FD05F091FE05309751F0A9
:1042000024E029839B838A830084F185E02DCE01FD
:10421000019609952396E2E00C94BC36A3E0B0E049
:10422000E4E1F1E20C94A0362091FB053091FC050D
:1042300028173907A1F09093FC058093FB05E091C6
:10424000FD05F091FE05309751F023E029839B8313
:104250008A830084F185E02DCE010196099523968D
:10426000E2E00C94BC36E091FD05F091FE0530973C
:1042700029F00190F081E02D0995089580E00895DE
:104280004115510511F0FA0109950895CF93DF9377
:10429000EC014A855B856E857F850E9440218B817C
:1042A0000E94FD238C810E9404240E940B2486E03E
:1042B000FE0111928A95E9F7DF91CF910895CF938E
:1042C000DF93EC018D8181FD17C082608D83909119
:1042D000F7058B81892B8093F7059091F8058C81E8
:1042E000892B8093F8050E940B24488559856E859B
:1042F0007F85CE010E9440211092FA051092F905A7
:104300008D8180FD03C0CE010E944621DF91CF91B7
:104310000895882311F0FA0101C0FB010995089561
:1043200080E008959091010692FF10C041E0282F8F
:104330002471243009F040E031E0282F2871283022
:1043400009F030E0431711F02CE0822793FF10C0F2
:1043500041E0282F2471243109F040E031E0282F7A
:104360002871283109F030E0431711F02CE0822742
:104370003091020630FF10C051E0282F217121300A
:1043800009F050E041E0282F2871283009F040E082
:10439000541711F029E0822731FF10C041E0282F87
:1043A0002171213109F040E031E0282F28712831B6
:1043B00009F030E0431711F029E0822794FD877E51
:1043C00008958238910569F1B0F48133910509F4BB
:1043D00075C048F48932910509F467C08A329105A5
:1043E00009F471C008958533910509F459C08933E2
:1043F0009105B9F00895833E910589F138F4803E26
:104400009105D1F0823E910529F10895863E9105EE
:10441000C9F1873E9105D9F1843E910509F06CC040
:1044200027C02091010620FD57C021FD55C02091D5
:10443000020623FD5BC008958091010680FD48C0FF
:104440008091020680FF48C08091010684FD46C02D
:1044500083EE51C08091010682FF3CC0F5CF809170
:10446000010682FD37C08091020680FD35C0ECCF89
:104470008091020681FF36C08091010684FD2EC026
:1044800087EE39C08091010683FF2AC0F5CF809165
:10449000010683FD25C08091020681FD23C0ECCF7B
:1044A0008091010685FD22C01FC08091010685FD17
:1044B0001BC08091020683FF19C00AC080910106CB
:1044C00086FD16C017C08091010686FD13C010C07E
:1044D00089E311C082EE0FC080EE0DC080E00BC0FA
:1044E00086EE09C084EE07C085E305C089E203C0FB
:1044F0008AE201C081E390E008959091F8058091EF
:10450000F705892B90914B069923E1F0892B909127
:104510008001992341F09091010697FF04C09EE12C
:1045200021E934E003C096E029E834E0F90120E015
:10453000915028F031913323D9F32F5FF9CF211116
:1045400010924B060895209149069091100657E06D
:104550002917A9F030E0529FF001539FF00D11246C
:10456000EF5EF94F7181761306C07081781303C036
:104570007581741306C02F5F3F4F2770E9CF80E02D
:10458000089581E008957E30B0F46630A0F4823062
:10459000A0F494E5899FF001112486E0789FE00D56
:1045A000F11D1124E60FF11DEE0FFF1FEC5EFD4F14
:1045B00085919491089580E001C081E090E0089594
:1045C0001F93CF93DF930E94E121EC01C11580E599
:1045D000D807E8F5C11590E4D90708F0A8C0C03E97
:1045E000D10530F5CD3CD10508F094C0C83AD105CD
:1045F00078F4C53AD10508F083C0C130D10509F47B
:104600007CC008F4F2C0C430D10508F0F1C0EDC0A0
:10461000C33CD10508F0E9C0C85AD0E0CC0FDD1F7B
:10462000C054DE4F0990D881C02DCE019464E1C002
:10463000C11580E2D80708F0CBC0C11591E0D907B9
:1046400008F06BC0C83ED10508F4D2C0CEC0C03659
:1046500082E5D80728F5C03492E5D90708F079C07B
:10466000C03282E5D80708F06CC0C11592E5D907C1
:1046700008F481C04C2F4695469580E2489FA001E2
:104680001124C37021E030E0C90102C0880F991FD6
:10469000CA95E2F7EA01C82BD92BCE019D68A9C0C3
:1046A000C03A82E5D807B8F48C2F8F71C03892E5F4
:1046B000D90708F07BC08695869590E2899F900186
:1046C0001124C37081E090E002C0880F991FCA9541
:1046D000E2F79A6868C0C03C82E5D80708F46DC06C
:1046E000C03E92E5D90708F080C0CF71DD27DC2FEE
:1046F000CC27CE01806F906A7CC081E090E079C0C9
:10470000C55AD0E0C354DE4F8881C82FD0E0CE0117
:1047100090646FC0CE0190656CC08D2F0E94922175
:10472000182FCE0199270E94E1211F715CC0CE0194
:1047300099270E94E121CC27DF70D06A8C2B9D2B1A
:1047400058C0CF71D0E0DC2FCC27CE01816F906AAA
:1047500050C08C2F8F718695869590E2899F90012D
:104760001124C37081E090E002C0880F991FCA95A0
:10477000E2F79C6818C08C2F8F710E94922195E0FF
:10478000D695C7959A95E1F7CF70D0E0DC2FCC276E
:10479000282F30E084FF05C084E0220F331F8A9564
:1047A000E1F7D069CE01822B932B23C090E0D82F64
:1047B000CC27CE01846F906A1CC08C2F8F710E9411
:1047C00092218F7190E0D82FCC27CE01906211C03A
:1047D0008D2F8F710E949221182FCE0199270E9450
:1047E000E1211F719062912B04C080E090E001C034
:1047F000CE01DF91CF911F91089580959091F7059B
:1048000089238093F705089580959091F805892371
:104810008093F805089580918001882351F180915B
:10482000010687FF26C00E947D228093900440E20B
:1048300050E06CE476E08FE894E00E949D39892B8B
:10484000D9F180E2EFE8F4E0ACE4B6E001900D923B
:104850008A95E1F7E091FD05F091FE05309761F151
:1048600086E080938F040480F581E02D8FE894E04A
:1048700022C00E947D228093870448E050E06CE6CD
:1048800076E087E894E00E949D39892BA9F088E0C2
:10489000E7E8F4E0ACE6B6E001900D928A95E1F726
:1048A000E091FD05F091FE05309731F00280F38133
:1048B000E02D87E894E00995089590914A06809547
:1048C000892380934A06282F277069F4981759F096
:1048D0009091020692FF07C08695869586950E9464
:1048E000AD3310924A0608959091020692FB22275A
:1048F00020F9281779F080FB92F9909302066091D5
:1049000001067091020684E090E00E947E3782E00A
:104910000E945D24089580914906909110068917A0
:1049200019F08F5F8770FBCF0895CF93DF9380914D
:104930000F0682958F7009F04EC080910E06882375
:1049400009F449C0809149064091100650910A0629
:1049500060910906C0910B06D0910C0677E0841790
:10496000D1F190E0789FF001799FF00D1124DF01E3
:10497000AF5EB94F14962C911497222349F11196EA
:104980002C911197251324C02C91261321C0159624
:104990002C91159721111CC012962D913C911397C3
:1049A0002C1B3D0B283C310598F480910F068F702D
:1049B000806180930F06E95EF94F80818F7080617E
:1049C000808389E096E00E94FF0A0E948B2403C046
:1049D00001968770C4CFDF91CF910895A4E1B0E034
:1049E000E4EFF4E20C9496368C0186E0F801DE01E7
:1049F0001F9601900D928A95E1F7F8018481E58078
:104A000099E0892E96E0992E90910D06911120C083
:104A1000882309F463C1EE2009F442C0C8010E9452
:104A2000C933F82E8823E1F187E0F801D401019021
:104A30000D928A95E1F780910D06813031F48091D5
:104A4000090690910A060E9432330E94952448C1BB
:104A5000F801D080C180A280B380F0900E06209132
:104A60000B0630910C06FF2009F4E7C0A501421B9C
:104A7000530B483C510508F09DC0882309F430C110
:104A800080910F06282F207F90910A06222361F043
:104A90009C1509F460C0C8010E94C933811163C02C
:104AA000C8010E94FF0A1AC19C1113C09091090607
:104AB0009D110FC0E1100DC08F70806180930F06B3
:104AC00089E096E00E94FF0A80910F06F801868334
:104AD00003C1E1103AC040E06C2D8D2D0E94A3224D
:104AE00040E06C2D8D2D0E94A322E82E8111F4C090
:104AF000DF86C88A8F8598890E943233292F2295B4
:104B00002F70243020F49F70223028F009C02A50E2
:104B1000223080F014C0992349F0811107C013C0DE
:104B2000992321F0F8019681907F69F0805E8830AA
:104B300030F409C0803F38F0815F833020F0C80135
:104B40000E94FF0AEF2CFE2CCBC080910F068160E3
:104B500080930F06C1C0909109069D119CCFE11072
:104B60009ACFF80198C0EE2009F49ACF20910F0651
:104B7000822F82958F7090E002978CF080910906C9
:104B800090910A0699878887BB86AA8680910D0630
:104B90008C871D862E87CE0108960E94FF0A87E02B
:104BA000F801A9E0B6E001900D928A95E1F70E9424
:104BB000952494C090910F06292F207F51F489E00D
:104BC00096E00E94FF0A87E0F40111928A95E9F7C6
:104BD00083C0882309F484C080910A068C110CC01C
:104BE000809109068D1108C0E11006C0F801968376
:104BF000C8010E94FF0A6AC0C8010E94C933882305
:104C000009F44ECFEE2009F44BCF20910F06822FEE
:104C100082958F7090E0029714F28091090690912E
:104C20000A069A838983BC82AB8280910D068D83AC
:104C30001E822F83CE010196B0CFA21AB30AF8ECE0
:104C4000AF16B10408F042C0882309F447C0FE2C17
:104C5000EE2009F425CF80910A068C1129C080919D
:104C600009068D1125C090910F0690FD18C0892F5F
:104C700082958F70282F30E02115310581F0F801E1
:104C800096832F30310541F08F5F982F9295907F5A
:104C900086818F70892B8683C8010E94FF0A87E076
:104CA000F801A9E0B6E001900D928A95E1F718C0ED
:104CB000C8010E94C933811172CF80910F068160B3
:104CC00080930F06C8010E94FF0A0AC087E0F40122
:104CD00011928A95E9F704C0F12C02C0FF24F394E5
:104CE0008F2D6496ECE00C94B236A6E0B0E0EBE7D2
:104CF000F6E20C949E360E944F208C01809174063F
:104D0000909175060817190781F019821A820E947E
:104D10004F20682F49815A81792F80E090E00E94CE
:104D20001E1910937506009374062696E4E00C9401
:104D3000BA36EF92FF920F931F93CF93DF93809138
:104D40000E0190910F01892BD9F0809176068F5F2B
:104D500080937606811114C00E94121B90E09093FC
:104D60000F0180930E01892B59F42FEF83EC99E00A
:104D7000215080409040E1F700C000000E94D11F08
:104D800005E414E0C0E0D0E087E0E82EED0E8D2FC2
:104D90000E943B1A8E2D0E943B1A8D2F0E949C1A56
:104DA0008F73F8019081891721F08083FF24F39499
:104DB00001C0F12C8E2D0E949C1A8F73F8019781EF
:104DC000891719F0878381E001C080E0F82ACF2994
:104DD0000E94871ADF5F0F5F1F4FD730A9F6CC23E1
:104DE00059F081E0809379060E944F2090937806D5
:104DF00080937706C0E022C0809179068823F1F085
:104E000080917706909178060E9434204497B0F004
:104E10004EE050E065E474E084E594E00E949D3942
:104E2000892B51F08EE0E5E4F4E0A4E5B4E00190D4
:104E30000D928A95E1F7C1E0109279068C2FCDB7DB
:104E4000DEB7E6E00C94B8369091BE069370A1F000
:104E5000811102C0946007C08E3210F0946B03C0C1
:104E6000880F880F982B9093BE0610928401809132
:104E7000BD0681608093BD0608959091BE06937033
:104E800059F08093BF066093C0064093C10680919D
:104E9000BD0681608093BD060895A7E0B0E0E3E51C
:104EA000F7E20C949036282E4B01809181010E94EC
:104EB0009631392E8F832091940629839F819315F3
:104EC00008F079C03F81632E712CF301E754FD4F48
:104ED000908180918201892309F469C04090BF06C6
:104EE0005090C006122D1E82C301880F991FDC014D
:104EF000A75ABD4FBB83AA83C301880F991FFC012A
:104F0000E65AFD4FFD83EC83F9811F1708F03EC080
:104F1000E12EF12CAA81BB81CC90D12CF701EC566B
:104F2000F94F8181C81AD108AC81BD81AC90B12CF8
:104F30008185A81AB108CC9C9001CD9C300D300D14
:104F40001124AA9CC001AB9C900D900D1124820FDE
:104F5000931F0E949F2F082F6091C20621E0620FCD
:104F600008F46FEFF701EE0FFF1FEC56F94F818D3C
:104F7000928D0E94F92F7C019501A601B2018E81CC
:104F8000F40109952B018E831F5FBECF2091C106CE
:104F90008E81382F329F312D1124832FB2010E9430
:104FA0001630462F282F672FC3010E94422F8F8172
:104FB0008F5F8F8383CF81E0AFE2A31508F480E099
:104FC0002796E2E10C94AC36A0E0B0E0EAEEF7E21E
:104FD0000C949A36EC01809181010E949631092F40
:104FE000182F2091C20631E0230F08F42FEF30E094
:104FF00040E050E06FEF7FEF80E090E00E94843768
:105000007901101708F041C0C12ED12CF601E754E8
:10501000FD4F9081809182018923A9F1909194069E
:10502000915097FD15C0492F092E000C550BFA0120
:10503000EC56F94F81891813F3CF440F551FFA012D
:10504000EC56F94F218D328D2E153F0548F701C0E2
:1050500097016091C20641E0640F08F46FEFC90147
:105060000E94F92FAC016091BF067091C00680913B
:10507000C106FE0109950E941630462F282F672F82
:10508000C6010E94422F1F5FBCCF81E0003308F0B1
:1050900080E0CDB7DEB7E8E00C94B636A0E0B0E033
:1050A000E4E5F8E20C949B368C01809181010E942A
:1050B0009631EC016091C2066695669521E0620F1B
:1050C00008F46FEF80919006909191060E94F92F5D
:1050D000D82ECD17F0F4EC2EF12CF701E754FD4F4C
:1050E000908180918201892391F06091BF06709137
:1050F000C0068091C1062D2D4C2FF80109950E9404
:105100001630462F282F672FC7010E94422FCF5FEE
:10511000E0CF81E0D03308F080E0CDB7DEB7E7E044
:105120000C94B736A0E0B0E0E8E9F8E20C949736CA
:105130006C01809181010E949631192FC82F6091D6
:10514000C2066695669580919006909191060E94A0
:10515000F92FD82F80E48D0F0E94452F90E8F92E6B
:10516000F80E8D2F0E94452F20E8922E980EC11721
:1051700000F5AC2EB12CF501E754FD4F90818091E4
:1051800082018923A1F06091BF067091C0068091D1
:10519000C106ED2E0C2F292D4F2DF60109950E94E9
:1051A0001630462F282F672FC5010E94422FCF5F50
:1051B000DECF81E0103308F080E0CDB7DEB7EBE062
:1051C0000C94B336A0E0B0E0E8EEF8E20C9495362B
:1051D0005C01809181010E949631F92E182F609117
:1051E000C206669580919006909191060E94F92FD3
:1051F000782E1F1508F043C0812E912CF401E7543E
:10520000FD4F9081809182018923B9F1F401EE0F65
:10521000FF1FE75AFD4FC081D0E0C057D109F4010C
:10522000EE0FFF1FE65AFD4FC080D12C80E2C81A56
:10523000D108CC9F9001CD9F300D300D1124CC9C16
:10524000C001CD9C900D900D1124820F931F0E94E0
:105250009F2F082F6091BF067091C0068091C106F4
:10526000E72C9601AE01F50109950E941630462FF4
:10527000282F672FC4010E94422F1F5FBACF81E001
:10528000FFE2FF1508F480E0CDB7DEB7EDE00C9447
:10529000B136A0E0B0E0EFE4F9E20C949A367C017C
:1052A000809181010E949631D92E182F6091C206FB
:1052B000669580919006909191060E94F92FC82ED4
:1052C0001D1578F5C12FD0E0FE01E754FD4F908108
:1052D00080918201892319F1FE01EE0FFF1FE65A2A
:1052E000FD4F208130E020523109FE01EE0FFF1FFB
:1052F000E75AFD4F408150E0405751096091BF0689
:105300007091C0068091C1060C2DF70109950E948D
:105310001630462F282F672FCE010E94422F1F5F85
:10532000CFCF81E0FFE2FD1508F480E0CDB7DEB716
:10533000E8E00C94B636AAE2B0E0E1EAF9E20C94B7
:105340009F36E8E8F6E080E996E02091F1002193AD
:105350008E179F07D1F780918906833009F463C0C7
:1053600030F4813071F0823009F49DC0B4C08A30CD
:1053700009F489C08B3009F46EC0893009F0ABC0E4
:1053800020C080918806813A09F0A5C08091E8008C
:10539000877F8093E80080918C0690918D06892B01
:1053A00021F468E08CE796E003C060E080E090E0E4
:1053B00070E00E940C1F8091E8008B778093E800DA
:1053C0008AC080918806813209F085C080918C0660
:1053D00090918D06009719F0029709F07CC080919A
:1053E000E800877F8093E8008091E80082FD05C097
:1053F000809186068111F8CF6EC02091F3008091D4
:10540000F20090E0922B029731F48091F10081300C
:1054100011F0863021F48091F10080937B06809119
:10542000E8008B7754C080918806813A09F053C018
:1054300080918C0690918D06892B09F04CC080914B
:10544000E800877F8093E8008091E80080FFFCCF30
:105450008091800137C0809188068132E1F580918A
:105460008C0690918D06892BB1F58091E800877F9D
:105470008093E8000E94861D80918A0680938001B7
:105480000E94EC3328C080918806813221F58091FA
:10549000E800877F8093E8000E94861D80918B063C
:1054A00080937A0618C080918806813AA1F4809191
:1054B000E800877F8093E8008091E80080FFFCCFC0
:1054C00080917A068093F1008091E8008E77809336
:1054D000E8000E94861D8091E80083FFEBC1809167
:1054E000880690918906492F50E04A30510508F00E
:1054F000E1C1FA01E056FF4F0C949739803821F052
:10550000823809F0D7C108C0809184069091850641
:10551000992389F082600FC080918C068F7087304C
:1055200008F0C8C18093E9008091EB0085FB8827D3
:1055300080F91092E9009091E800977F9093E8003D
:105540008093F1001092F1007CC1282F2D7F09F08B
:10555000B1C1882319F0823061F0ACC180918A0614
:10556000813009F0A7C1933009F080E0809385066F
:105570002EC080918A0681112AC080918C068F707E
:105580002FEF280F263008F095C18093E900209175
:10559000EB0020FF1CC0933021F48091EB0080626F
:1055A00014C09091EB0090619093EB0021E030E00B
:1055B000A90102C0440F551F8A95E2F74093EA0003
:1055C0001092EA008091EB0088608093EB001092CB
:1055D000E9008091E800877F8093E8000E94861DA3
:1055E00069C1811167C110918A061F778091E3001C
:1055F0008078812B8093E3008091E800877F8093FF
:10560000E8000E94861D8091E80080FFFCCF809119
:10561000E30080688093E300111102C082E001C0C2
:1056200083E08093860646C18058823008F042C1EC
:1056300020918A0630918B062C3D53E0350779F591
:1056400083E08A838AE289834FB7F894DE01139658
:1056500020E03EE051E2E32FF0E050935700E49168
:1056600020FF03C0E295EF703F5FEF708E2F90E058
:10567000EA3010F0C79601C0C0968D939D932F5FBE
:10568000243149F74FBF8091E800877F8093E8007D
:105690006AE270E0CE0101960E940C1FC0C08091AA
:1056A0008C0690918D06432F552743305105B1F05C
:1056B00068F44130510509F40CC14230510509F03C
:1056C000F9C08BE590E0E7E3F4E057C041325105C3
:1056D00089F14232510509F43CC0ECC0C901992757
:1056E00081309105B9F070F082309105D9F00397BF
:1056F00009F0E0C0E4EAF4E0E4918E2F90E0E4EAFF
:10570000F4E038C0E2E0F5E0E4918E2F90E0E2E0D2
:10571000F5E030C0E8EDF4E0E4918E2F90E0E8EDA4
:10572000F4E028C0E0ECF4E0E4918E2F90E0E0ECAF
:10573000F4E020C08330910508F0BCC0880F991FA9
:10574000FC01E150FE4F0190F081E02D89E090E0F6
:1057500014C08330910508F0ADC0FC01EE0FFF1FAF
:10576000E750FE4F0190F081E02DDC01AA50BE4FC2
:105770008C9190E0009709F49DC02091E800277F6C
:105780002093E80020918E0630918F062817390764
:1057900008F4C90140E0009789F120918606222390
:1057A00009F43DC02530D9F12091E80023FD37C030
:1057B0002091E80022FD2FC02091E80020FFEBCFD0
:1057C0004091F3002091F20030E0342B009759F023
:1057D0002830310540F444914093F100319601970F
:1057E0002F5F3F4FF3CF41E02830310509F040E013
:1057F0002091E8002E772093E800CDCF4111CDCF46
:105800000AC080918606882351F0853041F080914E
:10581000E80083FD04C08091E80082FFF2CF809110
:10582000E8008B778093E80045C0803809F042C0DB
:105830008091E800877F8093E800809187068093BD
:10584000F1008091E8008E77C7CE811133C080913E
:105850008A0690918B069927029764F58091E8005B
:10586000877F8093E80010918A06109387060E9434
:10587000861D111106C08091E30087FD02C081E002
:1058800001C084E08093860642E061EC81E00E94E2
:10589000A51D42E261EC84E00E94A51D42E261EC9C
:1058A00082E00E94A51D42E260EC83E00E94A51DFB
:1058B000809186068091E80083FF10C08091E80007
:1058C000877F8093E8008091EB0080628093EB00FB
:1058D00005C082E190E0E2E9F4E04FCFAA96E3E070
:1058E0000C94BB36EF92FF920F939701201B310966
:1058F0002F3F310519F010F02FEF30E02095382FB1
:10590000320F08F43FEF832F0F91FF90EF9008952F
:10591000EF92FF920F939701201B31092F3F310522
:1059200019F010F02FEF30E0322F3095482F430F51
:1059300008F44FEF842F620F0F91FF90EF900895BE
:10594000EF92FF920F93972F093438F4B701601B41
:1059500071096F3F710519F010F06FEF70E0485F4B
:105960005F4F4131510540F0A901485F5F4F413120
:10597000510510F06FEF70E06095482F460F08F466
:105980004FEF842F37FF02C02D5F3F4F359527958E
:10599000359527956091BF06620F792F0F91FF9083
:1059A000EF900895EF92FF920F93E00EF11CF90132
:1059B00037FF03C0F195E195F10924E0EE0FFF1FD9
:1059C0002A95E1F7EF3FF10519F014F0EFEFF0E061
:1059D0009A0157FF03C031952195310994E0220FB8
:1059E000331F9A95E1F72E173F070CF4F901EE0DDE
:1059F000FF1DEF3FF10519F010F0EFEFF0E02E2F53
:105A00002095382F320F08F43FEF832F0F91FF902E
:105A1000EF900895EF92FF920F93970195E0099F01
:105A2000200D311D11242F3F310519F010F02FEFFB
:105A300030E02095382F320F08F43FEF832F0F917D
:105A4000FF90EF900895409520E4429F412D11244E
:105A5000640F08954095282F429F412D1124842FD3
:105A60000895E42FF0E0EE0FFF1FE75AFD4F9081FD
:105A7000921B97FD9195292F38E1239F212D112409
:105A8000620F08950F931F9310E0F801EE0FFF1FB0
:105A9000E75AFD4F9081905797FD9195000F111F88
:105AA000F801E65AFD4FE081F0E0B097DF01AA0F60
:105AB000BB1F8D010E0F1F1F2003D001219FB00DB2
:105AC0001124E8E3F0E0E91BF10997FDF3959F014C
:105AD000220F331F89010E0F1F1F40039001419FAA
